{
  "contractName": "Will",
  "abi": [
    {
      "inputs": [
        {
          "name": "_ngo",
          "type": "address"
        },
        {
          "name": "_jack",
          "type": "address"
        },
        {
          "name": "_amount",
          "type": "uint256"
        },
        {
          "name": "_deadline",
          "type": "uint256"
        },
        {
          "name": "_attorneyPass",
          "type": "bytes32"
        },
        {
          "name": "_recipientPass",
          "type": "bytes32"
        }
      ],
      "payable": true,
      "stateMutability": "payable",
      "type": "constructor"
    },
    {
      "constant": false,
      "inputs": [],
      "name": "withdraw",
      "outputs": [],
      "payable": true,
      "stateMutability": "payable",
      "type": "function"
    },
    {
      "constant": false,
      "inputs": [],
      "name": "cancelWithdraw",
      "outputs": [],
      "payable": true,
      "stateMutability": "payable",
      "type": "function"
    }
  ],
  "bytecode": "0x608060405260405160c08061079e833981018060405260c081101561002357600080fd5b8101908080519060200190929190805190602001909291908051906020019092919080519060200190929190805190602001909291908051906020019092919050505085600260006101000a81548173ffffffffffffffffffffffffffffffffffffffff021916908373ffffffffffffffffffffffffffffffffffffffff16021790555084600360006101000a81548173ffffffffffffffffffffffffffffffffffffffff021916908373ffffffffffffffffffffffffffffffffffffffff16021790555083600081905550826001819055508160048190555080600581905550505050505050610685806101196000396000f3fe60806040526004361061004c576000357c0100000000000000000000000000000000000000000000000000000000900463ffffffff1680633ccfd60b1461005157806384b768241461005b575b600080fd5b610059610065565b005b610063610342565b005b600360009054906101000a900473ffffffffffffffffffffffffffffffffffffffff1673ffffffffffffffffffffffffffffffffffffffff163373ffffffffffffffffffffffffffffffffffffffff1614151561012a576040517f08c379a00000000000000000000000000000000000000000000000000000000081526004018080602001828103825260138152602001807f53656e646572206d757374206265204a61636b0000000000000000000000000081525060200191505060405180910390fd5b600154421015156101a3576040517f08c379a00000000000000000000000000000000000000000000000000000000081526004018080602001828103825260178152602001807f4d757374206265206265666f726520646561646c696e6500000000000000000081525060200191505060405180910390fd5b7f68656c6c6f00000000000000000000000000000000000000000000000000000060045414151561023c576040517f08c379a00000000000000000000000000000000000000000000000000000000081526004018080602001828103825260198152602001807f496e76616c6964206174746f726e65792070617373776f72640000000000000081525060200191505060405180910390fd5b7f776f726c640000000000000000000000000000000000000000000000000000006005541415156102d5576040517f08c379a000000000000000000000000000000000000000000000000000000000815260040180806020018281038252601a8152602001807f496e76616c696420726563697069656e742070617373776f726400000000000081525060200191505060405180910390fd5b600360009054906101000a900473ffffffffffffffffffffffffffffffffffffffff1673ffffffffffffffffffffffffffffffffffffffff166108fc6000549081150290604051600060405180830381858888f1935050505015801561033f573d6000803e3d6000fd5b50565b600260009054906101000a900473ffffffffffffffffffffffffffffffffffffffff1673ffffffffffffffffffffffffffffffffffffffff163373ffffffffffffffffffffffffffffffffffffffff16141515610407576040517f08c379a00000000000000000000000000000000000000000000000000000000081526004018080602001828103825260128152602001807f53656e646572206d757374206265204e474f000000000000000000000000000081525060200191505060405180910390fd5b6001544210151515610481576040517f08c379a00000000000000000000000000000000000000000000000000000000081526004018080602001828103825260168152602001807f4d75737420626520616674657220646561646c696e650000000000000000000081525060200191505060405180910390fd5b7f68656c6c6f00000000000000000000000000000000000000000000000000000060045414151561051a576040517f08c379a00000000000000000000000000000000000000000000000000000000081526004018080602001828103825260198152602001807f496e76616c6964206174746f726e65792070617373776f72640000000000000081525060200191505060405180910390fd5b7f776f726c640000000000000000000000000000000000000000000000000000006005541415156105b3576040517f08c379a000000000000000000000000000000000000000000000000000000000815260040180806020018281038252601a8152602001807f496e76616c696420726563697069656e742070617373776f726400000000000081525060200191505060405180910390fd5b600260009054906101000a900473ffffffffffffffffffffffffffffffffffffffff1673ffffffffffffffffffffffffffffffffffffffff166108fc6000549081150290604051600060405180830381858888f1935050505015801561061d573d6000803e3d6000fd5b50600260009054906101000a900473ffffffffffffffffffffffffffffffffffffffff1673ffffffffffffffffffffffffffffffffffffffff16fffea165627a7a72305820c4ca6f20530cff5bdc419b6297c42a642ecfa1d3bb002efd1c47d58b685f3b310029",
  "source": "pragma solidity >=0.5.0;\n\n/**\n * CSC 4700 Project 1\n *\n * @author Mason Walton, Michael Christian, Lex Adams\n */\ncontract Will {\n    uint private amount;           // The amount of ether to transfer to the recipient.\n    uint private deadline;         // The deadline by which Jack must withdraw the ethers.\n    address payable private ngo;   // The NGO's address.\n    address payable private jack;  // Jack's address.\n  \tbytes32 private attorneyPass;  // The attorney's password part.\n    bytes32 private recipientPass; // The recipient's password part.\n    \n    // Ensure the sender is Jack.\n    modifier onlyJack {\n      \trequire(msg.sender == jack, \"Sender must be Jack\");\n        _;\n    }\n    \n    // Ensure the sender is NGO.\n    modifier onlyNGO {\n      \trequire(msg.sender == ngo, \"Sender must be NGO\");\n        _;\n    }\n  \n  \t// Ensure it is before the deadline.\n    modifier beforeDeadline {\n      \trequire(now < deadline, \"Must be before deadline\");\n        _;\n    }\n  \n  \t// Ensure it is after the deadline.\n    modifier afterDeadline {\n      \trequire(now >= deadline, \"Must be after deadline\");\n        _;\n    }\n  \n  \t// Ensure the password parts are valid.\n    modifier validPass {\n      \trequire(attorneyPass == \"hello\", \"Invalid attorney password\");\n      \trequire(recipientPass == \"world\", \"Invalid recipient password\");\n    \t_;\n    }\n\n    /**\n     * Create a new Will contract.\n     * @param _ngo The NGO's address.\n     * @param _jack Jack's address.\n     * @param _amount The amount of ethers to transfer.\n     * @param _deadline The deadline by which Jack must withdraw the ethers.\n     * @param _attorneyPass The attorney's password part.\n     * @param _recipientPass Jack or the NGO's password part.\n     */\n    constructor(address payable _ngo, address payable _jack, uint _amount, uint _deadline, bytes32 _attorneyPass, bytes32 _recipientPass) public payable {\n        ngo = _ngo;\n        jack = _jack;\n        amount = _amount;\n        deadline = _deadline;\n        attorneyPass = _attorneyPass;\n        recipientPass = _recipientPass;\n    }\n    \n    /**\n     * Transfers the account balance to Jack.\n     *\n     * @dev Only Jack can perform this operation, and only if it is before the\n     * deadline and his password part is valid.\n     */\n    function withdraw() public payable onlyJack beforeDeadline validPass {\n        jack.transfer(amount);\n    }\n    \n    /**\n     * Transfers the account balance to NGO and cancels the contract.\n     *\n     * @dev Only the NGO can perform this operation, and only if it is after the\n     * deadline and their password part is valid.\n     */\n    function cancelWithdraw() public payable onlyNGO afterDeadline validPass {\n        ngo.transfer(amount);\n        selfdestruct(ngo);\n    }\n}\n",
  "sourcePath": "/Users/mwalto7/VSCodeProjects/blockchain/contracts/Will.sol",
  "compiler": {
    "name": "solc",
    "version": "0.5.0+commit.1d4f565a.Emscripten.clang"
  },
  "schemaVersion": "3.0.6",
  "updatedAt": "2019-04-21T22:19:07.317Z",
  "devdoc": {
    "author": "Mason Walton, Michael Christian, Lex Adams",
    "methods": {
      "cancelWithdraw()": {
        "details": "Only the NGO can perform this operation, and only if it is after the deadline and their password part is valid."
      },
      "constructor": {
        "params": {
          "_amount": "The amount of ethers to transfer.",
          "_attorneyPass": "The attorney's password part.",
          "_deadline": "The deadline by which Jack must withdraw the ethers.",
          "_jack": "Jack's address.",
          "_ngo": "The NGO's address.",
          "_recipientPass": "Jack or the NGO's password part."
        }
      },
      "withdraw()": {
        "details": "Only Jack can perform this operation, and only if it is before the deadline and his password part is valid."
      }
    }
  },
  "userdoc": {
    "methods": {
      "cancelWithdraw()": {
        "notice": "Transfers the account balance to NGO and cancels the contract."
      },
      "constructor": "Create a new Will contract.",
      "withdraw()": {
        "notice": "Transfers the account balance to Jack."
      }
    },
    "notice": "CSC 4700 Project 1"
  }
}