{
  "contractName": "Will",
  "abi": [
    {
      "inputs": [
        {
          "name": "_amount",
          "type": "uint256"
        },
        {
          "name": "_deadline",
          "type": "uint256"
        },
        {
          "name": "_attorneyPass",
          "type": "bytes32"
        },
        {
          "name": "_recipientPass",
          "type": "bytes32"
        }
      ],
      "payable": true,
      "stateMutability": "payable",
      "type": "constructor"
    },
    {
      "constant": false,
      "inputs": [],
      "name": "withdraw",
      "outputs": [],
      "payable": false,
      "stateMutability": "nonpayable",
      "type": "function"
    },
    {
      "constant": false,
      "inputs": [],
      "name": "cancelWithdraw",
      "outputs": [],
      "payable": false,
      "stateMutability": "nonpayable",
      "type": "function"
    }
  ],
  "bytecode": "0x60806040526040516080806108038339810180604052608081101561002357600080fd5b81019080805190602001909291908051906020019092919080519060200190929190805190602001909291905050508360008190555082600181905550816005819055508060068190555050505050610782806100816000396000f3fe60806040526004361061004c576000357c0100000000000000000000000000000000000000000000000000000000900463ffffffff1680633ccfd60b1461005157806384b7682414610068575b600080fd5b34801561005d57600080fd5b5061006661007f565b005b34801561007457600080fd5b5061007d6103ce565b005b600360009054906101000a900473ffffffffffffffffffffffffffffffffffffffff1673ffffffffffffffffffffffffffffffffffffffff163373ffffffffffffffffffffffffffffffffffffffff16141515610144576040517f08c379a000000000000000000000000000000000000000000000000000000000815260040180806020018281038252601f8152602001807f5065726d697373696f6e2044656e6965643a204d757374206265204a61636b0081525060200191505060405180910390fd5b426001541115156101e3576040517f08c379a00000000000000000000000000000000000000000000000000000000081526004018080602001828103825260218152602001807f5065726d697373696f6e2044656e6965643a20416674657220646561646c696e81526020017f650000000000000000000000000000000000000000000000000000000000000081525060400191505060405180910390fd5b7f68656c6c6f0000000000000000000000000000000000000000000000000000006005541415156102a2576040517f08c379a00000000000000000000000000000000000000000000000000000000081526004018080602001828103825260318152602001807f5065726d697373696f6e2044656e6965643a20496e76616c6964206174746f7281526020017f6e65792070617373776f7264207061727400000000000000000000000000000081525060400191505060405180910390fd5b7f776f726c64000000000000000000000000000000000000000000000000000000600654141515610361576040517f08c379a00000000000000000000000000000000000000000000000000000000081526004018080602001828103825260328152602001807f5065726d697373696f6e2044656e6965643a20496e76616c696420726563697081526020017f69656e742070617373776f72642070617274000000000000000000000000000081525060400191505060405180910390fd5b600360009054906101000a900473ffffffffffffffffffffffffffffffffffffffff1673ffffffffffffffffffffffffffffffffffffffff166108fc6000549081150290604051600060405180830381858888f193505050501580156103cb573d6000803e3d6000fd5b50565b600460009054906101000a900473ffffffffffffffffffffffffffffffffffffffff1673ffffffffffffffffffffffffffffffffffffffff163373ffffffffffffffffffffffffffffffffffffffff16141515610493576040517f08c379a000000000000000000000000000000000000000000000000000000000815260040180806020018281038252601e8152602001807f5065726d697373696f6e2044656e6965643a204d757374206265204e474f000081525060200191505060405180910390fd5b60015442111515610532576040517f08c379a00000000000000000000000000000000000000000000000000000000081526004018080602001828103825260228152602001807f5065726d697373696f6e2044656e6965643a204265666f726520646561646c6981526020017f6e6500000000000000000000000000000000000000000000000000000000000081525060400191505060405180910390fd5b7f68656c6c6f0000000000000000000000000000000000000000000000000000006005541415156105f1576040517f08c379a00000000000000000000000000000000000000000000000000000000081526004018080602001828103825260318152602001807f5065726d697373696f6e2044656e6965643a20496e76616c6964206174746f7281526020017f6e65792070617373776f7264207061727400000000000000000000000000000081525060400191505060405180910390fd5b7f776f726c640000000000000000000000000000000000000000000000000000006006541415156106b0576040517f08c379a00000000000000000000000000000000000000000000000000000000081526004018080602001828103825260328152602001807f5065726d697373696f6e2044656e6965643a20496e76616c696420726563697081526020017f69656e742070617373776f72642070617274000000000000000000000000000081525060400191505060405180910390fd5b600460009054906101000a900473ffffffffffffffffffffffffffffffffffffffff1673ffffffffffffffffffffffffffffffffffffffff166108fc6000549081150290604051600060405180830381858888f1935050505015801561071a573d6000803e3d6000fd5b50600460009054906101000a900473ffffffffffffffffffffffffffffffffffffffff1673ffffffffffffffffffffffffffffffffffffffff16fffea165627a7a72305820a114ee8f951a3e9c18d2d1e4f6dba45982aa9231378b88dbc1f81929a35b5e6c0029",
  "source": "pragma solidity >=0.5.0;\n\n/**\n * CSC 4700 Project 1\n *\n * @author Mason Walton, Michael Christian, Lex Adams\n */\ncontract Will {\n    uint private amount;           // The amount of ether to transfer to the receiver.\n    uint private deadline;         // The deadline for Jack to withdraw the ethers.\n    address private attorney;      // The attorney's address.\n    address payable private jack;  // Jack's address.\n    address payable private ngo;   // The NGO's address.\n  \tbytes32 private attorneyPass;  // The attorney's password part.\n    bytes32 private recipientPass; // The recipient's password part.\n    \n    // Ensure the caller is Jack.\n    modifier jackOnly {\n      \trequire(msg.sender == jack, \"Permission Denied: Must be Jack\");\n        _;\n    }\n    \n    // Ensure the caller is NGO.\n    modifier ngoOnly {\n      \trequire(msg.sender == ngo, \"Permission Denied: Must be NGO\");\n        _;\n    }\n  \n  \t// Ensure it is before the deadline.\n    modifier beforeDeadline {\n      \trequire(deadline > now, \"Permission Denied: After deadline\");\n        _;\n    }\n  \n  \t// Ensure it is after the deadline.\n    modifier afterDeadline {\n      \trequire(now > deadline, \"Permission Denied: Before deadline\");\n        _;\n    }\n  \n  \t// Ensure the password parts are valid.\n    modifier validPass {\n      \trequire(attorneyPass == \"hello\", \"Permission Denied: Invalid attorney password part\");\n      \trequire(recipientPass == \"world\", \"Permission Denied: Invalid recipient password part\");\n    \t_;\n    }\n\n    /**\n     * Create a new Will contract.\n     * @param _amount The amount of ethers to transfer.\n     * @param _deadline The deadline by which Jack must withdraw the ethers.\n     * @param _attorneyPass The attorney's password part.\n     * @param _recipientPass Jack or the NGO's password part.\n     */\n    constructor(uint _amount, uint _deadline, bytes32 _attorneyPass, bytes32 _recipientPass) payable public {\n        amount = _amount;\n        deadline = _deadline;\n        attorneyPass = _attorneyPass;\n        recipientPass = _recipientPass;\n        // TODO: Set up addresses.\n    }\n    \n    /**\n     * Transfers the account balance to Jack only is the deadline has not passed.\n     * @dev Only jack can perform this operation.\n     */\n    function withdraw() jackOnly beforeDeadline validPass public {\n        jack.transfer(amount);\n    }\n    \n    /**\n     * Transfers the account balance to NGO and cancels the contract\n     * only after the deadline has passed.\n     * @dev Only the NGO can perform this operation.\n     */\n    function cancelWithdraw() ngoOnly afterDeadline validPass public {\n    \tngo.transfer(amount);\n        selfdestruct(ngo);\n    }\n}\n",
  "sourcePath": "/Users/mwalto7/VSCodeProjects/blockchain/contracts/Will.sol",
  "compiler": {
    "name": "solc",
    "version": "0.5.0+commit.1d4f565a.Emscripten.clang"
  },
  "schemaVersion": "3.0.6",
  "updatedAt": "2019-04-09T19:23:35.914Z",
  "devdoc": {
    "author": "Mason Walton, Michael Christian, Lex Adams",
    "methods": {
      "cancelWithdraw()": {
        "details": "Only the NGO can perform this operation."
      },
      "constructor": {
        "params": {
          "_amount": "The amount of ethers to transfer.",
          "_attorneyPass": "The attorney's password part.",
          "_deadline": "The deadline by which Jack must withdraw the ethers.",
          "_recipientPass": "Jack or the NGO's password part."
        }
      },
      "withdraw()": {
        "details": "Only jack can perform this operation."
      }
    }
  },
  "userdoc": {
    "methods": {
      "cancelWithdraw()": {
        "notice": "Transfers the account balance to NGO and cancels the contract only after the deadline has passed."
      },
      "constructor": "Create a new Will contract.",
      "withdraw()": {
        "notice": "Transfers the account balance to Jack only is the deadline has not passed."
      }
    },
    "notice": "CSC 4700 Project 1"
  }
}